:020000040800F2
:1000000000000220FD0000083D0100083D0100083D
:100010003D0100083D0100083D010008000000000E
:100020000000000000000000000000003D0100088A
:100030003D010008000000003D0100083D010008EE
:1000400000000000000000000000000000000000B0
:1000500000000000000000000000000000000000A0
:100060000000000000000000000000000000000090
:100070000000000000000000000000000000000080
:100080000000000000000000000000000000000070
:100090000000000000000000000000000000000060
:1000A0000000000000000000000000000000000050
:1000B0000000000000000000000000000000000040
:1000C0000000000000000000000000000000000030
:1000D0000000000000000000000000000000000020
:1000E00000000000010100083D01000800F046F892
:1000F00000F026F800F066F862B6FEE7FFF7F6BFFC
:100100000B49CA6802F480720CD0CA684FF480733D
:100110006FEA030302EA0302CA6006490A6982F42D
:1001200080524A6104494A6942F400324A61704788
:1001300000280040000C0240003C0140FEE700BFE8
:1001400000B50C490A6B42F008020A630A490A68C2
:1001500042F080720A608A6822F040728A60CA683F
:1001600022F04072CA604FF480528A615DF804EB5D
:100170007047000000380240000C024000B51049F2
:100180000A6842F4803242F400220A600A6812F4DB
:100190000032FBD08A6822F0030242F001028A603A
:1001A0008A6812F00402FBD08A6842F0800242F4AE
:1001B000805242F400428A605DF804EB7047000010
:1001C0000038024000B53C490A6C42F080520A6493
:1001D0008A6842F400228A600A6F42F4004242F4C4
:1001E00040720A6735490A6842F480720A603449ED
:1001F0004FF0CA024A624FF053024A62CA6842F0A4
:100200008002CA604FF04003CA6802EA0302FBD0D2
:1002100041F63F720A614FF07C024FEA02420A61E6
:10022000284A0A60CA684FF08003C3F1000302EA5B
:100230000302CA6024494A6842F400324A602249F3
:100240000A6842F400320A608A6842F400328A6026
:100250004FF0E021D1F8042142F40072C1F80421EA
:10026000D1F8282422F47042C1F8282414498A685D
:100270004FF48073C3F1000302EA03028A60CA6884
:1002800002F00102FBD04FF0800242F4004242F43F
:10029000000242F00042CA614A6C6FF0706302EAE9
:1002A00003024A648A6842F4807242F480528A608F
:1002B0005DF804EB70470000003802400070004019
:0C02C0000028004031491200003C0140C1
:04000005080000FDF2
:00000001FF
