:1000000045C0000060C000005EC000005CC0000091
:100010005AC0000058C0000056C0000054C0000084
:1000200052C0000050C000004EC000004CC0000094
:100030004AC0000048C0000046C0000044C00000A4
:1000400042C0000040C000003EC000003CC00000B4
:100050003AC0000038C0000036C0000034C00000C4
:1000600032C0000030C000002EC000002CC00000D4
:100070002AC0000028C000000CC1000024C00000FD
:1000800022C0000020C000001EC0000011241FBEBE
:10009000CFEFD0E1DEBFCDBF11E0A0E0B1E0E2E8FC
:1000A000F3E000E00BBF02C007900D92AE30B10745
:1000B000D9F721E0AEE0B1E001C01D92A031B20756
:1000C000E1F724D15CC19CCF9AB393609ABB9BB3F8
:1000D00093609BBB9FEF94BB85BB8FEF97E4019729
:1000E000F1F700C000008BB38E7F8BBB8FEF97E4DE
:1000F0000197F1F700C0000008959AB393609ABB8E
:100100009BB391609BBB9BB39D7F9BBB9FEF94BBBD
:1001100085BB8FEF97E40197F1F700C000008BB328
:100120008C7F8BBB8FEF97E40197F1F700C0000045
:1001300008951F93CF93DF93CDB7DEB728970FB6FF
:10014000F894DEBF0FBECDBF2FEF8FEF9CE22150A2
:1001500080409040E1F700C0000084E3CEDF8FEFE5
:1001600097E40197F1F700C0000086E0C6DF8FEF4B
:1001700097E40197F1F700C0000080E0BEDF8FEF49
:1001800097E40197F1F700C0000080E8B6DF8FEF39
:1001900097E40197F1F700C0000088E0E6E0F1E0A5
:1001A000DE01119601900D928A95E1F710E00FC0E3
:1001B000E1E0F0E0EC0FFD1FE10FF11D808184DF35
:1001C0008FEF97E40197F1F700C000001F5F183030
:1001D00078F38CE092DF8FEF97E40197F1F700C09E
:1001E000000028960FB6F894DEBF0FBECDBFDF919A
:1001F000CF911F910895CF93DF93EC0180E87DDFCD
:100200008FEF97E40197F1F700C0000088815CDF71
:100210008FEF97E40197F1F700C00000898154DF68
:100220008FEF97E40197F1F700C000008AE34CDFFD
:100230008FEF97E40197F1F700C000008A8144DF57
:100240008FEF97E40197F1F700C000008B813CDF4E
:100250008FEF97E40197F1F700C000008AE334DFE5
:100260008FEF97E40197F1F700C000008C812CDF3D
:100270008FEF97E40197F1F700C000008D8124DF34
:100280008FEF97E40197F1F700C00000DF91CF9165
:1002900008951F920F920FB60F9211240BB60F9272
:1002A0002F933F934F938F939F93EF93FF9380915F
:1002B0009C008F3FE9F090910E01292F30E0482FEC
:1002C00042954F70405DF901E050FF4F40838F70C1
:1002D000805DF901EF5FFE4F8083943020F49E5FD4
:1002E00090930E0105C010920E0181E080930F01E2
:1002F000FF91EF919F918F914F913F912F910F908F
:100300000BBE0F900FBE0F901F90189512DF0CD0F0
:10031000789423D080910F018823E1F380E091E06D
:100320006ADF10920F01F6CF109298008FE280934F
:100330009900EBE9F0E080818D7F8083EDE9F0E0CA
:100340001082808186608083EAE9F0E0808188699C
:10035000808380818B7F8083089580E181BB82B31D
:10036000806182BB2FE38DE093E02150804090407C
:10037000E1F700C0000082B38F7E82BB0895F8943D
:02038000FFCFAD
:0E03820030000000000020203A20203A202009
:00000001FF
